{
  "contractName": "SimpleContract",
  "abi": [
    {
      "inputs": [],
      "stateMutability": "nonpayable",
      "type": "constructor"
    },
    {
      "anonymous": false,
      "inputs": [
        {
          "indexed": false,
          "internalType": "string",
          "name": "evPram",
          "type": "string"
        }
      ],
      "name": "nameEvent",
      "type": "event"
    },
    {
      "inputs": [],
      "name": "name",
      "outputs": [
        {
          "internalType": "string",
          "name": "",
          "type": "string"
        }
      ],
      "stateMutability": "view",
      "type": "function",
      "constant": true
    },
    {
      "inputs": [],
      "name": "getName",
      "outputs": [
        {
          "internalType": "string",
          "name": "",
          "type": "string"
        }
      ],
      "stateMutability": "view",
      "type": "function",
      "constant": true
    },
    {
      "inputs": [
        {
          "internalType": "string",
          "name": "_name",
          "type": "string"
        }
      ],
      "name": "changeName",
      "outputs": [],
      "stateMutability": "nonpayable",
      "type": "function"
    }
  ],
  "bytecode": "0x608060405234801561001057600080fd5b506040518060400160405280600481526020017f6e616d65000000000000000000000000000000000000000000000000000000008152506000908051906020019061005c9291906100a3565b5033600160006101000a81548173ffffffffffffffffffffffffffffffffffffffff021916908373ffffffffffffffffffffffffffffffffffffffff1602179055506101a7565b8280546100af90610175565b90600052602060002090601f0160209004810192826100d15760008555610118565b82601f106100ea57805160ff1916838001178555610118565b82800160010185558215610118579182015b828111156101175782518255916020019190600101906100fc565b5b5090506101259190610129565b5090565b5b8082111561014257600081600090555060010161012a565b5090565b7f4e487b7100000000000000000000000000000000000000000000000000000000600052602260045260246000fd5b6000600282049050600182168061018d57607f821691505b602082108114156101a1576101a0610146565b5b50919050565b6106a8806101b66000396000f3fe608060405234801561001057600080fd5b50600436106100415760003560e01c806306fdde031461004657806317d7de7c146100645780635353a2d814610082575b600080fd5b61004e61009e565b60405161005b91906103a6565b60405180910390f35b61006c61012c565b60405161007991906103a6565b60405180910390f35b61009c60048036038101906100979190610511565b6101be565b005b600080546100ab90610589565b80601f01602080910402602001604051908101604052809291908181526020018280546100d790610589565b80156101245780601f106100f957610100808354040283529160200191610124565b820191906000526020600020905b81548152906001019060200180831161010757829003601f168201915b505050505081565b60606000805461013b90610589565b80601f016020809104026020016040519081016040528092919081815260200182805461016790610589565b80156101b45780601f10610189576101008083540402835291602001916101b4565b820191906000526020600020905b81548152906001019060200180831161019757829003601f168201915b5050505050905090565b600160009054906101000a900473ffffffffffffffffffffffffffffffffffffffff1673ffffffffffffffffffffffffffffffffffffffff163373ffffffffffffffffffffffffffffffffffffffff161461021857600080fd5b806000908051906020019061022e92919061026a565b507f9645e7fb5eec05c0f156d4901a10663561199c6dd0401214a0b833fe0022d899600060405161025f9190610650565b60405180910390a150565b82805461027690610589565b90600052602060002090601f01602090048101928261029857600085556102df565b82601f106102b157805160ff19168380011785556102df565b828001600101855582156102df579182015b828111156102de5782518255916020019190600101906102c3565b5b5090506102ec91906102f0565b5090565b5b808211156103095760008160009055506001016102f1565b5090565b600081519050919050565b600082825260208201905092915050565b60005b8381101561034757808201518184015260208101905061032c565b83811115610356576000848401525b50505050565b6000601f19601f8301169050919050565b60006103788261030d565b6103828185610318565b9350610392818560208601610329565b61039b8161035c565b840191505092915050565b600060208201905081810360008301526103c0818461036d565b905092915050565b6000604051905090565b600080fd5b600080fd5b600080fd5b600080fd5b7f4e487b7100000000000000000000000000000000000000000000000000000000600052604160045260246000fd5b61041e8261035c565b810181811067ffffffffffffffff8211171561043d5761043c6103e6565b5b80604052505050565b60006104506103c8565b905061045c8282610415565b919050565b600067ffffffffffffffff82111561047c5761047b6103e6565b5b6104858261035c565b9050602081019050919050565b82818337600083830152505050565b60006104b46104af84610461565b610446565b9050828152602081018484840111156104d0576104cf6103e1565b5b6104db848285610492565b509392505050565b600082601f8301126104f8576104f76103dc565b5b81356105088482602086016104a1565b91505092915050565b600060208284031215610527576105266103d2565b5b600082013567ffffffffffffffff811115610545576105446103d7565b5b610551848285016104e3565b91505092915050565b7f4e487b7100000000000000000000000000000000000000000000000000000000600052602260045260246000fd5b600060028204905060018216806105a157607f821691505b602082108114156105b5576105b461055a565b5b50919050565b60008190508160005260206000209050919050565b600081546105dd81610589565b6105e78186610318565b94506001821660008114610602576001811461061457610647565b60ff1983168652602086019350610647565b61061d856105bb565b60005b8381101561063f57815481890152600182019150602081019050610620565b808801955050505b50505092915050565b6000602082019050818103600083015261066a81846105d0565b90509291505056fea26469706673582212202a30e5f797aa1dca6338e4da504abfc8c9b071c28a33891259e56875cf09525364736f6c634300080b0033",
  "immutableReferences": {},
  "source": "// SPDX-License-Identifier: MIT\npragma solidity >=0.4.22 <0.9.0;\n\ncontract SimpleContract {\n  string public name;\n  address private owner;\n\n  constructor() {\n    name = \"name\";\n    owner = msg.sender;\n  }\n\n  event nameEvent (string evPram);\n\n  modifier onlyOwner() {\n    require(msg.sender == owner);\n    _;\n  }\n\n  function getName() public view returns (string memory) {\n    return name;\n  }\n\n  function changeName(string memory _name) public onlyOwner {\n    name = _name;\n    emit nameEvent(name);\n  }\n}\n",
  "sourcePath": "/home/chinhvuong/Desktop/blockchain/truffle-demo/contracts/SimpleContract.sol",
  "compiler": {
    "name": "solc",
    "version": "0.8.11+commit.d7f03943.Emscripten.clang"
  },
  "schemaVersion": "3.4.4",
  "updatedAt": "2022-01-23T07:40:29.410Z",
  "networkType": "ethereum",
  "devdoc": {
    "kind": "dev",
    "methods": {},
    "version": 1
  },
  "userdoc": {
    "kind": "user",
    "methods": {},
    "version": 1
  }
}